:100000000C9452000C946F000C946F000C946F00D1
:100010000C946F000C946F000C946F000C946F00A4
:100020000C946F000C946F000C946F000C946F0094
:100030000C946F000C946F000C94A3050C946F004B
:100040000C942D020C946F000C946F000C946F00B4
:100050000C946F000C9477020C946F000C946F005A
:100060000C946F000C946F00000000002500280025
:100070002B0000000000240027002A0004040404D0
:100080000404040402020202020203030303030342
:10009000010204081020408001020408102001021F
:1000A0000408102011241FBECFEFD8E0DEBFCDBF63
:1000B00011E0A0E0B1E0E8E3F8E102C005900D92A4
:1000C000A037B107D9F721E0A0E7B1E001C01D9248
:1000D000A43BB207E1F70E94510A0C941A0C0C944D
:1000E000000090E0FC01E057FF4F249184589F4F9F
:1000F000FC018491882399F090E0880F991FFC01FE
:10010000EE58FF4FA591B491FC01E859FF4F85913E
:1001100094918FB7F894EC91E22BEC938FBF0895F4
:100120003FB7F8948091AD019091AE01A091AF01DD
:10013000B091B00126B5A89B05C02F3F19F00196DC
:10014000A11DB11D3FBFBA2FA92F982F8827BC0131
:10015000CD01620F711D811D911D42E0660F771F59
:10016000881F991F4A95D1F70895CF93DF931F9267
:10017000CDB7DEB7898388E090E02898298127FFF2
:1001800011C05E9A2981220F29834C9B03C02981CB
:1001900021602983289A019781F789810F90DF9147
:1001A000CF9108955E98EECFCF93DF9380910601B3
:1001B00020918D0130918E01820F932F911D97FF19
:1001C00009C085E090E09093960180939501DF91BE
:1001D000CF9108958B3091051CF080E197E2F3CF29
:1001E000FC01EE0FFF1FEC5EFE4FC081D1814091FC
:1001F0008F0150919001880F991FFC01EA5EFE4F1C
:10020000208131812C1B3D0B249FC001259F900D27
:10021000349F900D112467E270E00E94000C6C0F77
:100220007D1F7093960160939501D1CF8091070156
:1002300020918A0190910701E0918A01820FF0E0FC
:10024000E90FF11D97FDFA95F595E795F595E79579
:10025000E45DFE4F9081891B2091040130910501DE
:10026000882399F04CE050E0481B5109B90102C0C5
:10027000660F771F4A95E2F7AB0102C036952795C6
:100280008A95E2F7262B352B207F309301012093AE
:1002900000010895CF93C82F10928A010E94160181
:1002A0008C2F90E0FC01E356FE4F108281569E4F4A
:1002B000FC01108210928E0110928D01109290011B
:1002C00010928F01CF9108950F931F93CF93DF93D7
:1002D0008C3028F59091B1019111FCCF8B0191E008
:1002E0009093B101C82FD0E0609684E0CC0FDD1F61
:1002F0008A95E1F7CE010E94CA0B081721F0602F02
:10030000CE010E94D20B2196CE010E94CA0B181773
:1003100021F0612FCE010E94D20B1092B101DF912A
:10032000CF911F910F910895FF920F931F93CF9339
:10033000DF9304E011E0C0E1D0E0F801F1908F011B
:10034000CE010E94CA0BF81621F06F2DCE010E943B
:10035000D20B2196C032D10581F784E091E0DF9184
:10036000CF911F910F91FF9008950F931F93CF93FB
:10037000DF938C01EB010E94CA0B8883C8010196B0
:100380000E94CA0B8983CE01DF91CF911F910F91FB
:100390000895AF92BF92CF92DF92EF92FF920F93A8
:1003A0001F93CF93DF9300D0CDB7DEB71A821982A7
:1003B000C12CDD24D39410E000E0F12CE12CA12C21
:1003C00090E8B92EBE016F5F7F4FC6010E94B50154
:1003D00089819A81892B49F0C501002E02C096952A
:1003E00087950A94E2F7E82AF92A0F5F1F4F80E108
:1003F000C80ED11C0C30110529F7C7010F900F90C2
:10040000DF91CF911F910F91FF90EF90DF90CF90F0
:10041000BF90AF900895CF93DF9300D0CDB7DEB7F4
:100420008C30B0F490E04096BE016F5F7F4F24E0C7
:10043000880F991F2A95E1F70E94B50189819A8159
:100440009093050180930401109207010E94160108
:100450000F900F90DF91CF9108951F920F920FB6DA
:100460000F9211242F933F938F939F93AF93BF933A
:100470008091A9019091AA01A091AB01B091AC012A
:100480003091A80123E0230F2D3758F50196A11DC7
:10049000B11D2093A8018093A9019093AA01A09374
:1004A000AB01B093AC018091AD019091AE01A091F0
:1004B000AF01B091B0010196A11DB11D8093AD01B6
:1004C0009093AE01A093AF01B093B001BF91AF91F3
:1004D0009F918F913F912F910F900FBE0F901F9082
:1004E000189526E8230F0296A11DB11DD2CF1F92A9
:1004F0000F920FB60F9211244F925F926F927F92DC
:100500008F929F92AF92BF92CF92DF92EF92FF9223
:100510000F931F932F933F934F935F936F937F930B
:100520008F939F93AF93BF93EF93FF93CF93DF93FB
:10053000CDB7DEB72C97DEBFCDBF8091A7018F5F0F
:1005400083708093A70190917C00907F892B80938A
:100550007C003091A70182E03827809178002091BB
:100560007900922FE32FF0E0F595E79530FFADC0CD
:100570008F010C5F1E4FD8011B962C91211143C097
:100580009C01285F3F4FC90168E270E00E94000CA7
:1005900048ED4603C001479F900D1124820F931F21
:1005A0009093900180938F016D50710970938E012B
:1005B00060938D010E94D4002C960FB6F894DEBF94
:1005C0000FBECDBFDF91CF91FF91EF91BF91AF9162
:1005D0009F918F917F916F915F914F913F912F915B
:1005E0001F910F91FF90EF90DF90CF90BF90AF9051
:1005F0009F908F907F906F905F904F900F900FBE65
:100600000F901F901895AF0145575E4FDA013C914E
:10061000B8E03B9FB0011124681779070CF40197EB
:10062000049623E0959587952A95E1F72FEF280FFB
:10063000DA012C93321709F4BFCFD8011B963C91F5
:100640003330A1F158F43130F9F0323009F0B4CF41
:10065000805480939D0180939E01AECF353089F107
:1006600050F13C3009F0A8CF8450A22FA350BB0B0F
:10067000FD01F595E795F595E795E45DFE4F9081D1
:10068000891B0E940B0298CF8450422F4350550B78
:10069000FA01F595E795F595E795E45DFE4F9081B4
:1006A000891B80938A010E94160186CF8054E356ED
:1006B000FE4F808381CF805480939F018093A0015F
:1006C0007BCF8054E156FE4FF4CF9F012B553E4F18
:1006D0007901D901BC908F010E5F1E4FD801AC90FB
:1006E000AA2041F0B8E0BB9E9001112428173907D9
:1006F0000CF401972091A401263079F49091A30184
:100700008091A2012091A101222309F46CC1815C96
:100710002CE0929F800D1124ADC09E2E40910A01C5
:10072000DF01A156BE4F2C91022E000C330B240F7B
:10073000311D47FD3A95A3E0220F331FAA95E1F73B
:10074000280F391F44244394E41108C080910B0101
:1007500048E08402C0011124280F391F80910D0147
:100760008111D2C08091000190910101009709F49C
:10077000F2C0B9016C5F7F4F43E0759567954A956C
:10078000E1F7462FDB01BB271896B595A795B595E0
:10079000A795A45DBE4F5C91562E551A78E0772E32
:1007A000750C812CDC01AA0FBB1F871408F094C0C4
:1007B00051E0580D97FF8DC0582D66246A9497FD1F
:1007C000652E880F991F5F5F5715C8F3DC01AA0FCC
:1007D000BB1F59E0550D5C3008F0AEC16D01CC0C6B
:1007E000DD1C44244394450EB7FF7BC0D52ECC249A
:1007F000CA94B7FDCD2CAA0FBB1FD3947CE0472E23
:10080000D410F7CFAFEF6A126FC0CA1621F074E1AF
:10081000D72ED50CDC18571997FD0AC05D1530F09E
:10082000D5126FC02770243008F06BC0452F460FDB
:1008300020910801DF01A356BE4F8C91082E000CB9
:10084000990B820F911D27FD9A950197840FB1E0B6
:100850009B1203C090910901890FDF01A556BE4F7D
:1008600087FDBDC0AA2011F0B81204C09C91913040
:1008700009F0B9C0D7018C9390E09F01220F331F7C
:10088000D901A459BE4F0D90BC91A02D11969C93F7
:100890008E9380910C0181110BC048B180E190E0F2
:1008A0000E2E01C0880F0A94EAF78095842388B938
:1008B00029563E4F8EEF9FEFD9018D939C93DF0118
:1008C000A556BE4F1C928091A10181508093A10139
:1008D0008AC0852ECD0166CF88248A9466246A94C6
:1008E00075CF542DD60177CFD72CD6185F3F09F09E
:1008F00092CFBFEF582D5719545F8B128DCF5CE00C
:100900008BCF462F4D1994CF80910D01609100013E
:1009100070910101813009F561157105E1F02C5FDD
:100920003F4F93E0359527959A95E1F7422F88E060
:10093000820FD901BB271896B595A795B595A795B0
:10094000A45DBE4F9C91891B02C0660F771F8A95DC
:10095000E2F777FD6DCF4FEF6BCF61157105D9F3DE
:10096000A9014C5F5F4FA3E055954795AA95E1F724
:10097000DA01BB271896B595A795B595A795A45DFF
:10098000BE4F8C90CE0101966C018CE0D6011D9279
:100990008A95E9F790E080E077FF05C0D601A90FBE
:1009A000B11D8C939F5F660F771F8F5F8C30A1F70F
:1009B00038E0340F38192770832F880F880F880F7D
:1009C000280F299FC001112460E670E00E94EC0B03
:1009D000C60ED11C431BD6018C91480F29CF8C9198
:1009E000813009F41C929F01220F331FD901A956AF
:1009F000BE4F8D919C91892B51F488B140E150E01C
:100A00000E2E01C0440F0A94EAF7842B88B9809116
:100A1000950190919601D901A956BE4F4D915C91D7
:100A20004817590759F448B180E190E00E2E01C0F3
:100A3000880F0A94EAF78095842388B9D901A956CA
:100A4000BE4F8D919C9111974091950150919601C7
:100A5000481759071CF001968D939C93D8018C91EF
:100A60008823A9F049B184E090E002C0880F991F63
:100A7000EA95E2F750E084239523892B09F49CCD75
:100A80001C922F563E4FF9011182108295CD8CB3E6
:100A900090E00E2E02C0959587950A94E2F780FFAC
:100AA00023C08CB341E050E00E2E01C0440F0A94E5
:100AB000EAF7842B8CBBD901AF56BE4F8D919C9128
:100AC00097FD0AC090910E01E556FE4F892F880FC1
:100AD000880F890F8F5F80832F563E4F8AEF9FEFDD
:100AE000D9018D939C9368CDDF01A556BE4F8C91A3
:100AF000823010F081508C9369B1D901AF56BE4F4E
:100B00008D919C91119744E050E002C0440F551F15
:100B1000EA95E2F770E046235723452B51F48131E3
:100B2000E7E29E0714F40196DCCF81E0D8018C93B4
:100B300043CD97FF41CDF7CFBFEF5FEF6B12D4CE20
:100B40003CE0D32ED6CE1F920F920FB60F921124F7
:100B50002F923F924F925F926F927F928F929F92CD
:100B6000AF92BF92CF92DF92EF92FF920F931F93BB
:100B70002F933F934F935F936F937F938F939F93A5
:100B8000AF93BF93EF93FF93CF93DF93CDB7DEB7D0
:100B90002697DEBFCDBF80916E008D7F80936E0063
:100BA0007894409189018091700190917101019731
:100BB00090937101809370012091B2013091B30143
:100BC0002230310550F02091B2013091B301215013
:100BD00031093093B3012093B2018C01007C117074
:100BE0001A82198221E07C01EE2431E0F32290FF89
:100BF00020E02A8387FB992790F99B8386FB99271E
:100C000090F99C8385FB992790F99D83829581704B
:100C10008E83E091A401EE3008F046C2F0E0ED5E74
:100C2000F94F0C94140C2106AC06CB0603072A07D7
:100C3000520789072B083008F5071008C507DD079C
:100C40003C08442349F080910C0101E010E0882326
:100C500049F001E011E006C0F89400910001109104
:100C6000010178945D985D9AE0908801F12C802FC5
:100C700080950E94B500F701E258FE4F8083812FD6
:100C800080950E94B500F701EC58FE4F80835F9875
:100C90005F9AEEE7F1E0A4E7B1E028E831E080E018
:100CA00090E04191942B4D91842B2E173F07C9F76B
:100CB000209188012F5F2A3008F0F9C12093880124
:100CC000C92EC094309173013C21C82EC09420914C
:100CD00072012C21690190937301809372018E6FD0
:100CE00091E08E3F09F090E090938901C114D10406
:100CF00009F421C2B12CA12C00E117E277247A94E7
:100D00002CE0F22E32E0E32E49E0642E5DE0552E19
:100D10006BE0462E77E0372EE8E12E2E812CF0E8AE
:100D20009F2E2A2DD7FEFDC1E091A401EE3008F0E0
:100D3000F8C1F0E0E256F94F0C94140C5A0820095F
:100D40004F097C09AA09D8092609360A3E0A160A5B
:100D5000270A060A0F0A480A80910701813071F4B8
:100D60000115110509F47ECF9091070100E010E80C
:100D700002C0169507959A95E2F774CFEF28A1F374
:100D80008091070100E010E802C0169507958A954A
:100D9000E2F7106467CF209108012858822F6CE099
:100DA0000E94E00B96EF980FE22FF0E0F595E795A3
:100DB000F595E795E45DFE4F3081231B2230A9F4C1
:100DC00001151105E9F48B50853008F093C0FE0140
:100DD000E90FF11D97FDFA958181882309F4D2C0AE
:100DE00084E090E0082B192B3DCF00E010E802C012
:100DF000169507952A95E2F7EF2829F31062E3CFBD
:100E000000E010E2E0CF209109012858822F6CE029
:100E10000E94E00B96EF980FE22FF0E0F595E79532
:100E2000F595E795E45DFE4F3081231B233031F4C7
:100E30000115110541F200E010E1C5CF00E010E816
:100E400002C0169507952A95E2F7EF2809F4BBCF63
:100E50001061B9CF20910A012858822F6CE00E94BE
:100E6000E00B96EF980FE22FF0E0F595E795F595FA
:100E7000E795E45DFE4F3081231B243039F40115E2
:100E8000110509F4A0CF00E018E09DCF00E010E8C4
:100E900002C0169507952A95E2F7EF2809F493CF3B
:100EA000186091CF20910B012858822F6CE00E948E
:100EB000E00B96EF980FE22FF0E0F595E795F595AA
:100EC000E795E45DFE4F3081231B253039F4011591
:100ED000110509F478CF00E014E075CF00E010E8C8
:100EE00002C0169507952A95E2F7EF2809F46BCF13
:100EF000146069CF9B3F0CF445C0FE01E91BF1096A
:100F000097FDF3958181882309F43CC082E090E04D
:100F100069CF8091A201863069F401151105B1F005
:100F20009091A20100E010E802C0169507959A95ED
:100F3000E2F70CC0EF28A1F38091A20100E010E8D5
:100F400002C0169507958A95E2F712608091A30179
:100F5000181664F48091A301863044F48091A301B3
:100F6000FE01E80FF11D87FDFA9536CF8091A301B0
:100F70008B3F44F08091A301FE01E81BF10987FD3E
:100F8000F395C0CF90E080E02DCF809106018111D4
:100F900007C00115110509F465CE90910601E6CE52
:100FA000EF28D9F38091060100E010E802C0169501
:100FB00007958A95E2F7106855CE80910D0188302B
:100FC00039F40115110509F44DCE90910D01CECEE5
:100FD000EF28D9F380910D0100E010E802C01695CA
:100FE00007958A95E2F700683DCE80910F018F3F0B
:100FF00021F090910F019A3039F40115110509F48F
:1010000031CE00E210E02ECE00E010E802C01695CE
:1010100007959A95E2F7EF2809F424CE006222CED4
:10102000809110018F3F21F0909110019B3039F495
:101030000115110509F416CE00E110E013CE00E011
:1010400010E802C0169507959A95E2F7EF2809F483
:1010500009CE006107CE0E94C9018C01086002CE52
:101060000E94C901E114F10419F0A8E0EA2EF12C64
:101070008C010E291F29F6CD80910E01893039F49B
:101080000115110509F4EECD90910E016FCEEF28F8
:10109000D9F380910E0100E010E802C01695079583
:1010A0008A95E2F70064DECD10E000E0DBCD10921F
:1010B000880106CE80918901811189C02C3068F5A4
:1010C0009091070180918A01980F822D891B280F2A
:1010D000F5017896E91BF109F595E795F595E79502
:1010E000E45DFE4F8081281BF894409104015091EB
:1010F0000501C40102C0969587952A95E2F78427D9
:10110000952790930501809304010E94160178941D
:101110001093B3010093B20104C02C30D1F530928A
:10112000A401CC0CDD1C8FEFA81AB80A30E1A3167D
:10113000B10409F0F6CD80916E00826080936E005C
:1011400026960FB6F894DEBF0FBECDBFDF91CF91CC
:10115000FF91EF91BF91AF919F918F917F916F918F
:101160005F914F913F912F911F910F91FF90EF90C1
:10117000DF90CF90BF90AF909F908F907F906F90B7
:101180005F904F903F902F900F900FBE0F901F9049
:1011900018952D3069F4809107018F5F80930701C6
:1011A000809107018C3011F410920701F894ADCFB3
:1011B0002E3009F0B6CF80910701811102C0F09264
:1011C000070180910701815080930701EFCFA110A3
:1011D00003C04092A401A5CF213019F42093A401AB
:1011E000A0CF2230D9F32330C9F32430B9F325300E
:1011F000A9F3263099F3273039F480910C0191E05E
:10120000892780930C018DCF283019F4F092A40126
:1012100088CF293019F45092A40183CF2A3019F4D1
:101220006092A4017ECF2B3021F48AE08093A40148
:1012300078CF2C3009F075CF38E03093A40171CF0E
:101240002C3008F02AC1A0920701B0CF2C3038F41E
:10125000F894A092A201E092A101789462CF2F307D
:1012600019F41092A4015DCF2E3061F48091A30196
:101270008C3F0CF456CFF8948091A3018150809359
:10128000A301E9CF2D3009F04CCF8091A301853027
:101290000CF047CFF8948091A3018F5FF0CF2C30F2
:1012A00070F480910801F89488586F2D0E94E00B2B
:1012B0008A508F9D200D11242093080128CF2F30B4
:1012C00081F22E3061F480910801803D0CF429CF29
:1012D000F894809108018C508093080118CF2D302C
:1012E00009F01FCF809108018C330CF01ACFF894CD
:1012F00080910801845FF0CF2C3070F48091090157
:10130000F89488586F2D0E94E00B8A508F9D200D15
:10131000112420930901FBCE2F3009F4A2CF2E30E7
:1013200061F480910901803D0CF4FBCEF89480912A
:1013300009018C5080930901EACE2D3009F0F1CEDD
:10134000809109018C330CF0ECCEF8948091090166
:10135000845FF0CF2C3070F480910A01F8948858A3
:101360006F2D0E94E00B8A508F9D200D1124209339
:101370000A01CDCE2F3009F474CF2E3061F4809164
:101380000A01803D0CF4CDCEF89480910A018C5076
:1013900080930A01BCCE2D3009F0C3CE80910A01A2
:1013A0008C330CF0BECEF89480910A01845FF0CFAC
:1013B0002C3070F480910B01F89488586F2D0E94A6
:1013C000E00B8A508F9D200D112420930B019FCE9E
:1013D0002F3009F446CF2E3061F480910B01803D0F
:1013E0000CF49FCEF89480910B018C5080930B01EC
:1013F0008ECE2D3009F095CE80910B018C330CF000
:1014000090CEF89480910B01845FF0CF2C3008F0DF
:1014100044C0F894A09206010E94D40078CE2330F4
:1014200008F03BC0F894A0920D0171CE263010F068
:101430002C3039F4F89420930F0180E00E944A0187
:1014400066CE2A3051F5F89470920F01F6CF26300F
:1014500010F02C3029F4F8942093100181E0EECFA5
:101460002B30D9F4F89470921001F8CF2C30A8F4F6
:101470008A2D0E940B021092A4014ACE2C3068F4EF
:1014800060910001709101018A2D0E946401E9CEF2
:101490002C3018F4A0920E013BCE2F3009F041CE33
:1014A000E0CE789484B5826084BD84B5816084BDCB
:1014B00085B5826085BD85B5816085BD80916E00F2
:1014C000816080936E001092810080918100826023
:1014D0008093810080918100816080938100809160
:1014E00080008160809380008091B100846080934F
:1014F000B1008091B00081608093B00080917A004B
:10150000846080937A0080917A00826080937A0070
:1015100080917A00816080937A0080917A0080685F
:1015200080937A001092C10090E080E00E94CA0B84
:10153000813009F01EC104E011E0C0E1D0E0CE012D
:101540000E94CA0BF80181938F012196C032D10508
:10155000B1F70E9416010E94D40089E00E94710038
:101560008AE00E94710080918100887F8160809371
:101570008100809181008061809381008091810051
:1015800088608093810080918000826080938000D9
:10159000809180008E7F809380008FE790E0909311
:1015A000870080938600809180008068809380000F
:1015B000809180008F7B809380008091800080628A
:1015C00080938000809180008F7E809380001092B5
:1015D00089001092880010928B0010928A008091EE
:1015E0007A008F7780937A0080917C008F77809348
:1015F0007C0080917C00806480937C0080917C00E2
:101600008F7D80937C0080917C00877F80937C001D
:1016100080917C008B7F80937C0080917C008D7F0B
:1016200080937C0080917C00816080937C0080911D
:101630007A00806280937A0080917A00886080933B
:101640007A0080917A00846080937A0080917A0099
:10165000826080937A0080917A008E7F80937A00F6
:1016600080917B008B7F80937B0080917B008D7FBE
:1016700080937B0080917B008E7F80937B008091A4
:101680007A00806880937A0052985A9A53985B9AAD
:101690003C9A44983D9A4598209A289A54985C9888
:1016A000559A5D9A569A5E98579A5F9A809169000A
:1016B000826080936900809169008E7F80936900C9
:1016C00080916900886080936900809169008B7FB8
:1016D000809369000E9490004B015C018AE0C82E53
:1016E000D12CE12CF12C0E949000681979098A090B
:1016F0009B09683E734081059105A8F3F1E0CF1A7C
:10170000D108E108F10828EE820E23E0921EA11C08
:10171000B11CC114D104E104F10429F780916E00D9
:101720008E7F80936E0080916E00826080936E0049
:1017300080917A00806480937A00C0E0D0E011E06C
:101740008091B2019091B301019771F48091B10140
:10175000811106C01093B1010E9494011092B10151
:101760001092B3011092B201209751F30E94000031
:10177000E7CF0E949401C0E070E060E08C2F0E94EF
:101780006401CF5FCC30C1F761E090E080E00E945F
:10179000D20BE3CEF999FECF92BD81BDF89A99277D
:1017A00080B50895262FF999FECF1FBA92BD81BD4D
:1017B00020BD0FB6F894FA9AF99A0FBE01960895D3
:1017C000991B79E004C0991F961708F0961B881F93
:1017D0007A95C9F780950895AA1BBB1B51E107C0F4
:1017E000AA1FBB1FA617B70710F0A61BB70B881FB1
:1017F000991F5A95A9F780959095BC01CD01089540
:1018000097FB072E16F4009407D077FD09D00E94AD
:10181000EC0B07FC05D03EF4909581959F4F089501
:10182000709561957F4F0895EE0FFF1F0590F4911D
:08183000E02D0994F894FFCFAC
:1018380050AD010150AD000000000000000000FFA5
:10184800FF0000000500320055009000F500A001DF
:10185800C302B104F8078A0DFF1610270000000C18
:101868000C0C1818182424243030303C3C3C4848D0
:10187800485454546060606C6C6C787878848484C4
:101888009090909C9C9CA8A8A8B4B4B4C0C0C0CCAC
:10189800CCCCD8D8D8E4E4E4F0F0F0FC88008A0096
:00000001FF
